{
    "_format": "hh-sol-artifact-1",
    "contractName": "Voting",
    "sourceName": "contracts/Voting.sol",
    "abi": [
        {
            "anonymous": false,
            "inputs": [
                {
                    "indexed": false,
                    "internalType": "uint256",
                    "name": "sessionId",
                    "type": "uint256"
                },
                {
                    "indexed": false,
                    "internalType": "uint256",
                    "name": "candidateIndex",
                    "type": "uint256"
                },
                {
                    "indexed": false,
                    "internalType": "address",
                    "name": "voter",
                    "type": "address"
                }
            ],
            "name": "VoteCast",
            "type": "event"
        },
        {
            "anonymous": false,
            "inputs": [
                {
                    "indexed": false,
                    "internalType": "uint256",
                    "name": "sessionId",
                    "type": "uint256"
                },
                {
                    "indexed": false,
                    "internalType": "string",
                    "name": "title",
                    "type": "string"
                },
                {
                    "indexed": false,
                    "internalType": "address",
                    "name": "creator",
                    "type": "address"
                },
                {
                    "indexed": false,
                    "internalType": "uint256",
                    "name": "votingEnd",
                    "type": "uint256"
                }
            ],
            "name": "VotingSessionCreated",
            "type": "event"
        },
        {
            "inputs": [
                {
                    "internalType": "string",
                    "name": "_title",
                    "type": "string"
                },
                {
                    "internalType": "string[]",
                    "name": "_candidateNames",
                    "type": "string[]"
                },
                {
                    "internalType": "uint256",
                    "name": "_durationInMinutes",
                    "type": "uint256"
                }
            ],
            "name": "createVotingSession",
            "outputs": [],
            "stateMutability": "nonpayable",
            "type": "function"
        },
        {
            "inputs": [
                {
                    "internalType": "uint256",
                    "name": "sessionId",
                    "type": "uint256"
                }
            ],
            "name": "getRemainingTime",
            "outputs": [
                {
                    "internalType": "uint256",
                    "name": "",
                    "type": "uint256"
                }
            ],
            "stateMutability": "view",
            "type": "function"
        },
        {
            "inputs": [
                {
                    "internalType": "uint256",
                    "name": "sessionId",
                    "type": "uint256"
                }
            ],
            "name": "getResults",
            "outputs": [
                {
                    "components": [
                        {
                            "internalType": "string",
                            "name": "name",
                            "type": "string"
                        },
                        {
                            "internalType": "uint256",
                            "name": "voteCount",
                            "type": "uint256"
                        }
                    ],
                    "internalType": "struct Voting.Candidate[]",
                    "name": "",
                    "type": "tuple[]"
                }
            ],
            "stateMutability": "view",
            "type": "function"
        },
        {
            "inputs": [
                {
                    "internalType": "uint256",
                    "name": "sessionId",
                    "type": "uint256"
                }
            ],
            "name": "getVotingSessionTitle",
            "outputs": [
                {
                    "internalType": "string",
                    "name": "",
                    "type": "string"
                }
            ],
            "stateMutability": "view",
            "type": "function"
        },
        {
            "inputs": [
                {
                    "internalType": "uint256",
                    "name": "sessionId",
                    "type": "uint256"
                }
            ],
            "name": "isVotingActive",
            "outputs": [
                {
                    "internalType": "bool",
                    "name": "",
                    "type": "bool"
                }
            ],
            "stateMutability": "view",
            "type": "function"
        },
        {
            "inputs": [
                {
                    "internalType": "uint256",
                    "name": "sessionId",
                    "type": "uint256"
                },
                {
                    "internalType": "uint256",
                    "name": "candidateIndex",
                    "type": "uint256"
                }
            ],
            "name": "vote",
            "outputs": [],
            "stateMutability": "nonpayable",
            "type": "function"
        },
        {
            "inputs": [
                {
                    "internalType": "uint256",
                    "name": "",
                    "type": "uint256"
                }
            ],
            "name": "votingSessions",
            "outputs": [
                {
                    "internalType": "string",
                    "name": "title",
                    "type": "string"
                },
                {
                    "internalType": "address",
                    "name": "creator",
                    "type": "address"
                },
                {
                    "internalType": "uint256",
                    "name": "votingStart",
                    "type": "uint256"
                },
                {
                    "internalType": "uint256",
                    "name": "votingEnd",
                    "type": "uint256"
                },
                {
                    "internalType": "bool",
                    "name": "isActive",
                    "type": "bool"
                }
            ],
            "stateMutability": "view",
            "type": "function"
        }
    ],
    "bytecode": "0x608060405234801561001057600080fd5b5061184a806100206000396000f3fe608060405234801561001057600080fd5b506004361061007d5760003560e01c80633e5c08b21161005b5780633e5c08b214610116578063772744b51461013257806381a60c0d14610162578063b384abef146101925761007d565b80631186eb7c14610082578063181e0124146100b6578063312ef525146100e6575b600080fd5b61009c60048036038101906100979190610a7b565b6101ae565b6040516100ad959493929190610ba3565b60405180910390f35b6100d060048036038101906100cb9190610a7b565b6102a9565b6040516100dd9190610bfd565b60405180910390f35b61010060048036038101906100fb9190610a7b565b6102fe565b60405161010d9190610c18565b60405180910390f35b610130600480360381019061012b9190610e55565b6103fc565b005b61014c60048036038101906101479190610a7b565b6105f5565b6040516101599190610ee0565b60405180910390f35b61017c60048036038101906101779190610a7b565b61063b565b6040516101899190611053565b60405180910390f35b6101ac60048036038101906101a79190611075565b6107c3565b005b600081815481106101be57600080fd5b90600052602060002090600702016000915090508060000180546101e1906110e4565b80601f016020809104026020016040519081016040528092919081815260200182805461020d906110e4565b801561025a5780601f1061022f5761010080835404028352916020019161025a565b820191906000526020600020905b81548152906001019060200180831161023d57829003601f168201915b5050505050908060010160009054906101000a900473ffffffffffffffffffffffffffffffffffffffff16908060020154908060030154908060060160009054906101000a900460ff16905085565b600080600083815481106102c0576102bf611115565b5b90600052602060002090600702019050806003015442106102e55760009150506102f9565b4281600301546102f59190611173565b9150505b919050565b60606000805490508210610347576040517f08c379a000000000000000000000000000000000000000000000000000000000815260040161033e906111f3565b60405180910390fd5b6000828154811061035b5761035a611115565b5b90600052602060002090600702016000018054610377906110e4565b80601f01602080910402602001604051908101604052809291908181526020018280546103a3906110e4565b80156103f05780601f106103c5576101008083540402835291602001916103f0565b820191906000526020600020905b8154815290600101906020018083116103d357829003601f168201915b50505050509050919050565b6000825111610440576040517f08c379a00000000000000000000000000000000000000000000000000000000081526004016104379061125f565b60405180910390fd5b600080600181600181540180825580915050039060005260206000209060070201905083816000019081610474919061142b565b50338160010160006101000a81548173ffffffffffffffffffffffffffffffffffffffff021916908373ffffffffffffffffffffffffffffffffffffffff160217905550428160020181905550603c826104ce91906114fd565b426104d9919061153f565b816003018190555060018160060160006101000a81548160ff02191690831515021790555060005b835181101561059c5781600401604051806040016040528086848151811061052c5761052b611115565b5b6020026020010151815260200160008152509080600181540180825580915050600190039060005260206000209060020201600090919091909150600082015181600001908161057c919061142b565b50602082015181600101555050808061059490611573565b915050610501565b507f8fce2f3533b6f69973fd1c2f3f8fd539ee9e51464fd9b5453b92738b5308e0e860016000805490506105d09190611173565b853384600301546040516105e794939291906115bb565b60405180910390a150505050565b6000806000838154811061060c5761060b611115565b5b90600052602060002090600702019050806002015442101580156106335750806003015442105b915050919050565b60606000828154811061065157610650611115565b5b9060005260206000209060070201600301544210156106a5576040517f08c379a000000000000000000000000000000000000000000000000000000000815260040161069c90611653565b60405180910390fd5b600082815481106106b9576106b8611115565b5b9060005260206000209060070201600401805480602002602001604051908101604052809291908181526020016000905b828210156107b8578382906000526020600020906002020160405180604001604052908160008201805461071d906110e4565b80601f0160208091040260200160405190810160405280929190818152602001828054610749906110e4565b80156107965780601f1061076b57610100808354040283529160200191610796565b820191906000526020600020905b81548152906001019060200180831161077957829003601f168201915b50505050508152602001600182015481525050815260200190600101906106ea565b505050509050919050565b81600081815481106107d8576107d7611115565b5b906000526020600020906007020160020154421015801561081d57506000818154811061080857610807611115565b5b90600052602060002090600702016003015442105b61085c576040517f08c379a0000000000000000000000000000000000000000000000000000000008152600401610853906116bf565b60405180910390fd5b600080848154811061087157610870611115565b5b906000526020600020906007020190508060050160003373ffffffffffffffffffffffffffffffffffffffff1673ffffffffffffffffffffffffffffffffffffffff16815260200190815260200160002060009054906101000a900460ff1615610910576040517f08c379a000000000000000000000000000000000000000000000000000000000815260040161090790611751565b60405180910390fd5b80600401805490508310610959576040517f08c379a0000000000000000000000000000000000000000000000000000000008152600401610950906117bd565b60405180910390fd5b80600401838154811061096f5761096e611115565b5b9060005260206000209060020201600101600081548092919061099190611573565b919050555060018160050160003373ffffffffffffffffffffffffffffffffffffffff1673ffffffffffffffffffffffffffffffffffffffff16815260200190815260200160002060006101000a81548160ff0219169083151502179055507f7fe1d4e6b34e228b5dc059fcdc037c71b216fb2417f47c171e505144a5e4f5fc848433604051610a23939291906117dd565b60405180910390a150505050565b6000604051905090565b600080fd5b600080fd5b6000819050919050565b610a5881610a45565b8114610a6357600080fd5b50565b600081359050610a7581610a4f565b92915050565b600060208284031215610a9157610a90610a3b565b5b6000610a9f84828501610a66565b91505092915050565b600081519050919050565b600082825260208201905092915050565b60005b83811015610ae2578082015181840152602081019050610ac7565b60008484015250505050565b6000601f19601f8301169050919050565b6000610b0a82610aa8565b610b148185610ab3565b9350610b24818560208601610ac4565b610b2d81610aee565b840191505092915050565b600073ffffffffffffffffffffffffffffffffffffffff82169050919050565b6000610b6382610b38565b9050919050565b610b7381610b58565b82525050565b610b8281610a45565b82525050565b60008115159050919050565b610b9d81610b88565b82525050565b600060a0820190508181036000830152610bbd8188610aff565b9050610bcc6020830187610b6a565b610bd96040830186610b79565b610be66060830185610b79565b610bf36080830184610b94565b9695505050505050565b6000602082019050610c126000830184610b79565b92915050565b60006020820190508181036000830152610c328184610aff565b905092915050565b600080fd5b600080fd5b7f4e487b7100000000000000000000000000000000000000000000000000000000600052604160045260246000fd5b610c7c82610aee565b810181811067ffffffffffffffff82111715610c9b57610c9a610c44565b5b80604052505050565b6000610cae610a31565b9050610cba8282610c73565b919050565b600067ffffffffffffffff821115610cda57610cd9610c44565b5b610ce382610aee565b9050602081019050919050565b82818337600083830152505050565b6000610d12610d0d84610cbf565b610ca4565b905082815260208101848484011115610d2e57610d2d610c3f565b5b610d39848285610cf0565b509392505050565b600082601f830112610d5657610d55610c3a565b5b8135610d66848260208601610cff565b91505092915050565b600067ffffffffffffffff821115610d8a57610d89610c44565b5b602082029050602081019050919050565b600080fd5b6000610db3610dae84610d6f565b610ca4565b90508083825260208201905060208402830185811115610dd657610dd5610d9b565b5b835b81811015610e1d57803567ffffffffffffffff811115610dfb57610dfa610c3a565b5b808601610e088982610d41565b85526020850194505050602081019050610dd8565b5050509392505050565b600082601f830112610e3c57610e3b610c3a565b5b8135610e4c848260208601610da0565b91505092915050565b600080600060608486031215610e6e57610e6d610a3b565b5b600084013567ffffffffffffffff811115610e8c57610e8b610a40565b5b610e9886828701610d41565b935050602084013567ffffffffffffffff811115610eb957610eb8610a40565b5b610ec586828701610e27565b9250506040610ed686828701610a66565b9150509250925092565b6000602082019050610ef56000830184610b94565b92915050565b600081519050919050565b600082825260208201905092915050565b6000819050602082019050919050565b600082825260208201905092915050565b6000610f4382610aa8565b610f4d8185610f27565b9350610f5d818560208601610ac4565b610f6681610aee565b840191505092915050565b610f7a81610a45565b82525050565b60006040830160008301518482036000860152610f9d8282610f38565b9150506020830151610fb26020860182610f71565b508091505092915050565b6000610fc98383610f80565b905092915050565b6000602082019050919050565b6000610fe982610efb565b610ff38185610f06565b93508360208202850161100585610f17565b8060005b8581101561104157848403895281516110228582610fbd565b945061102d83610fd1565b925060208a01995050600181019050611009565b50829750879550505050505092915050565b6000602082019050818103600083015261106d8184610fde565b905092915050565b6000806040838503121561108c5761108b610a3b565b5b600061109a85828601610a66565b92505060206110ab85828601610a66565b9150509250929050565b7f4e487b7100000000000000000000000000000000000000000000000000000000600052602260045260246000fd5b600060028204905060018216806110fc57607f821691505b60208210810361110f5761110e6110b5565b5b50919050565b7f4e487b7100000000000000000000000000000000000000000000000000000000600052603260045260246000fd5b7f4e487b7100000000000000000000000000000000000000000000000000000000600052601160045260246000fd5b600061117e82610a45565b915061118983610a45565b92508282039050818111156111a1576111a0611144565b5b92915050565b7f496e76616c69642073657373696f6e2049442e00000000000000000000000000600082015250565b60006111dd601383610ab3565b91506111e8826111a7565b602082019050919050565b6000602082019050818103600083015261120c816111d0565b9050919050565b7f4d7573742068617665206174206c65617374206f6e652063616e646964617465600082015250565b6000611249602083610ab3565b915061125482611213565b602082019050919050565b600060208201905081810360008301526112788161123c565b9050919050565b60008190508160005260206000209050919050565b60006020601f8301049050919050565b600082821b905092915050565b6000600883026112e17fffffffffffffffffffffffffffffffffffffffffffffffffffffffffffffffff826112a4565b6112eb86836112a4565b95508019841693508086168417925050509392505050565b6000819050919050565b600061132861132361131e84610a45565b611303565b610a45565b9050919050565b6000819050919050565b6113428361130d565b61135661134e8261132f565b8484546112b1565b825550505050565b600090565b61136b61135e565b611376818484611339565b505050565b5b8181101561139a5761138f600082611363565b60018101905061137c565b5050565b601f8211156113df576113b08161127f565b6113b984611294565b810160208510156113c8578190505b6113dc6113d485611294565b83018261137b565b50505b505050565b600082821c905092915050565b6000611402600019846008026113e4565b1980831691505092915050565b600061141b83836113f1565b9150826002028217905092915050565b61143482610aa8565b67ffffffffffffffff81111561144d5761144c610c44565b5b61145782546110e4565b61146282828561139e565b600060209050601f8311600181146114955760008415611483578287015190505b61148d858261140f565b8655506114f5565b601f1984166114a38661127f565b60005b828110156114cb578489015182556001820191506020850194506020810190506114a6565b868310156114e857848901516114e4601f8916826113f1565b8355505b6001600288020188555050505b505050505050565b600061150882610a45565b915061151383610a45565b925082820261152181610a45565b9150828204841483151761153857611537611144565b5b5092915050565b600061154a82610a45565b915061155583610a45565b925082820190508082111561156d5761156c611144565b5b92915050565b600061157e82610a45565b91507fffffffffffffffffffffffffffffffffffffffffffffffffffffffffffffffff82036115b0576115af611144565b5b600182019050919050565b60006080820190506115d06000830187610b79565b81810360208301526115e28186610aff565b90506115f16040830185610b6a565b6115fe6060830184610b79565b95945050505050565b7f566f74696e672073657373696f6e206973207374696c6c206163746976652e00600082015250565b600061163d601f83610ab3565b915061164882611607565b602082019050919050565b6000602082019050818103600083015261166c81611630565b9050919050565b7f566f74696e672073657373696f6e206973206e6f742061637469766500000000600082015250565b60006116a9601c83610ab3565b91506116b482611673565b602082019050919050565b600060208201905081810360008301526116d88161169c565b9050919050565b7f596f75206861766520616c726561647920766f74656420696e2074686973207360008201527f657373696f6e2e00000000000000000000000000000000000000000000000000602082015250565b600061173b602783610ab3565b9150611746826116df565b604082019050919050565b6000602082019050818103600083015261176a8161172e565b9050919050565b7f496e76616c69642063616e64696461746520696e6465782e0000000000000000600082015250565b60006117a7601883610ab3565b91506117b282611771565b602082019050919050565b600060208201905081810360008301526117d68161179a565b9050919050565b60006060820190506117f26000830186610b79565b6117ff6020830185610b79565b61180c6040830184610b6a565b94935050505056fea2646970667358221220fd38b86a744668bda75a228482a0ae48cd56e3d5ecb54b39f44881bee81b1ec964736f6c63430008110033",
    "linkReferences": {},
    "deployedLinkReferences": {}
}