{
    "_format": "hh-sol-artifact-1",
    "contractName": "VotingContract",
    "sourceName": "contracts/Voting.sol",
    "abi": [
        {
            "anonymous": false,
            "inputs": [
                {
                    "indexed": false,
                    "internalType": "uint256",
                    "name": "sessionId",
                    "type": "uint256"
                },
                {
                    "indexed": false,
                    "internalType": "uint256",
                    "name": "candidateIndex",
                    "type": "uint256"
                },
                {
                    "indexed": false,
                    "internalType": "address",
                    "name": "voter",
                    "type": "address"
                }
            ],
            "name": "VoteCast",
            "type": "event"
        },
        {
            "anonymous": false,
            "inputs": [
                {
                    "indexed": false,
                    "internalType": "uint256",
                    "name": "sessionId",
                    "type": "uint256"
                },
                {
                    "indexed": false,
                    "internalType": "string",
                    "name": "title",
                    "type": "string"
                },
                {
                    "indexed": false,
                    "internalType": "address",
                    "name": "creator",
                    "type": "address"
                },
                {
                    "indexed": false,
                    "internalType": "uint256",
                    "name": "votingEnd",
                    "type": "uint256"
                }
            ],
            "name": "VotingSessionCreated",
            "type": "event"
        },
        {
            "inputs": [
                {
                    "internalType": "string",
                    "name": "_title",
                    "type": "string"
                },
                {
                    "internalType": "string[]",
                    "name": "_candidateNames",
                    "type": "string[]"
                },
                {
                    "internalType": "uint256",
                    "name": "_durationInMinutes",
                    "type": "uint256"
                }
            ],
            "name": "createVotingSession",
            "outputs": [],
            "stateMutability": "nonpayable",
            "type": "function"
        },
        {
            "inputs": [
                {
                    "internalType": "uint256",
                    "name": "sessionId",
                    "type": "uint256"
                }
            ],
            "name": "getRemainingTime",
            "outputs": [
                {
                    "internalType": "uint256",
                    "name": "",
                    "type": "uint256"
                }
            ],
            "stateMutability": "view",
            "type": "function"
        },
        {
            "inputs": [
                {
                    "internalType": "uint256",
                    "name": "sessionId",
                    "type": "uint256"
                }
            ],
            "name": "getResults",
            "outputs": [
                {
                    "components": [
                        {
                            "internalType": "string",
                            "name": "name",
                            "type": "string"
                        },
                        {
                            "internalType": "uint256",
                            "name": "voteCount",
                            "type": "uint256"
                        }
                    ],
                    "internalType": "struct VotingContract.Candidate[]",
                    "name": "",
                    "type": "tuple[]"
                }
            ],
            "stateMutability": "view",
            "type": "function"
        },
        {
            "inputs": [
                {
                    "internalType": "uint256",
                    "name": "sessionId",
                    "type": "uint256"
                }
            ],
            "name": "getVotingSessionTitle",
            "outputs": [
                {
                    "internalType": "string",
                    "name": "",
                    "type": "string"
                }
            ],
            "stateMutability": "view",
            "type": "function"
        },
        {
            "inputs": [
                {
                    "internalType": "uint256",
                    "name": "sessionId",
                    "type": "uint256"
                }
            ],
            "name": "isVotingActive",
            "outputs": [
                {
                    "internalType": "bool",
                    "name": "",
                    "type": "bool"
                }
            ],
            "stateMutability": "view",
            "type": "function"
        },
        {
            "inputs": [
                {
                    "internalType": "uint256",
                    "name": "sessionId",
                    "type": "uint256"
                },
                {
                    "internalType": "uint256",
                    "name": "candidateIndex",
                    "type": "uint256"
                }
            ],
            "name": "vote",
            "outputs": [],
            "stateMutability": "nonpayable",
            "type": "function"
        },
        {
            "inputs": [
                {
                    "internalType": "uint256",
                    "name": "",
                    "type": "uint256"
                }
            ],
            "name": "votingSessions",
            "outputs": [
                {
                    "internalType": "string",
                    "name": "title",
                    "type": "string"
                },
                {
                    "internalType": "address",
                    "name": "creator",
                    "type": "address"
                },
                {
                    "internalType": "uint256",
                    "name": "votingStart",
                    "type": "uint256"
                },
                {
                    "internalType": "uint256",
                    "name": "votingEnd",
                    "type": "uint256"
                },
                {
                    "internalType": "bool",
                    "name": "isActive",
                    "type": "bool"
                }
            ],
            "stateMutability": "view",
            "type": "function"
        }
    ],
    "bytecode": "0x608060405234801561001057600080fd5b506117bd806100206000396000f3fe608060405234801561001057600080fd5b506004361061007d5760003560e01c80633e5c08b21161005b5780633e5c08b214610116578063772744b51461013257806381a60c0d14610162578063b384abef146101925761007d565b80631186eb7c14610082578063181e0124146100b6578063312ef525146100e6575b600080fd5b61009c60048036038101906100979190610a5a565b6101ae565b6040516100ad959493929190610b82565b60405180910390f35b6100d060048036038101906100cb9190610a5a565b6102a9565b6040516100dd9190610bdc565b60405180910390f35b61010060048036038101906100fb9190610a5a565b6102fe565b60405161010d9190610bf7565b60405180910390f35b610130600480360381019061012b9190610e34565b6103fc565b005b61014c60048036038101906101479190610a5a565b6105f5565b6040516101599190610ebf565b60405180910390f35b61017c60048036038101906101779190610a5a565b61063b565b6040516101899190611032565b60405180910390f35b6101ac60048036038101906101a79190611054565b6107a2565b005b600081815481106101be57600080fd5b90600052602060002090600702016000915090508060000180546101e1906110c3565b80601f016020809104026020016040519081016040528092919081815260200182805461020d906110c3565b801561025a5780601f1061022f5761010080835404028352916020019161025a565b820191906000526020600020905b81548152906001019060200180831161023d57829003601f168201915b5050505050908060010160009054906101000a900473ffffffffffffffffffffffffffffffffffffffff16908060020154908060030154908060060160009054906101000a900460ff16905085565b600080600083815481106102c0576102bf6110f4565b5b90600052602060002090600702019050806003015442106102e55760009150506102f9565b4281600301546102f59190611152565b9150505b919050565b60606000805490508210610347576040517f08c379a000000000000000000000000000000000000000000000000000000000815260040161033e906111d2565b60405180910390fd5b6000828154811061035b5761035a6110f4565b5b90600052602060002090600702016000018054610377906110c3565b80601f01602080910402602001604051908101604052809291908181526020018280546103a3906110c3565b80156103f05780601f106103c5576101008083540402835291602001916103f0565b820191906000526020600020905b8154815290600101906020018083116103d357829003601f168201915b50505050509050919050565b6000825111610440576040517f08c379a00000000000000000000000000000000000000000000000000000000081526004016104379061123e565b60405180910390fd5b600080600181600181540180825580915050039060005260206000209060070201905083816000019081610474919061140a565b50338160010160006101000a81548173ffffffffffffffffffffffffffffffffffffffff021916908373ffffffffffffffffffffffffffffffffffffffff160217905550428160020181905550603c826104ce91906114dc565b426104d9919061151e565b816003018190555060018160060160006101000a81548160ff02191690831515021790555060005b835181101561059c5781600401604051806040016040528086848151811061052c5761052b6110f4565b5b6020026020010151815260200160008152509080600181540180825580915050600190039060005260206000209060020201600090919091909150600082015181600001908161057c919061140a565b50602082015181600101555050808061059490611552565b915050610501565b507f8fce2f3533b6f69973fd1c2f3f8fd539ee9e51464fd9b5453b92738b5308e0e860016000805490506105d09190611152565b853384600301546040516105e7949392919061159a565b60405180910390a150505050565b6000806000838154811061060c5761060b6110f4565b5b90600052602060002090600702019050806002015442101580156106335750806003015442105b915050919050565b60606000805490508210610684576040517f08c379a000000000000000000000000000000000000000000000000000000000815260040161067b906111d2565b60405180910390fd5b60008281548110610698576106976110f4565b5b9060005260206000209060070201600401805480602002602001604051908101604052809291908181526020016000905b8282101561079757838290600052602060002090600202016040518060400160405290816000820180546106fc906110c3565b80601f0160208091040260200160405190810160405280929190818152602001828054610728906110c3565b80156107755780601f1061074a57610100808354040283529160200191610775565b820191906000526020600020905b81548152906001019060200180831161075857829003601f168201915b50505050508152602001600182015481525050815260200190600101906106c9565b505050509050919050565b81600081815481106107b7576107b66110f4565b5b90600052602060002090600702016002015442101580156107fc5750600081815481106107e7576107e66110f4565b5b90600052602060002090600702016003015442105b61083b576040517f08c379a000000000000000000000000000000000000000000000000000000000815260040161083290611632565b60405180910390fd5b60008084815481106108505761084f6110f4565b5b906000526020600020906007020190508060050160003373ffffffffffffffffffffffffffffffffffffffff1673ffffffffffffffffffffffffffffffffffffffff16815260200190815260200160002060009054906101000a900460ff16156108ef576040517f08c379a00000000000000000000000000000000000000000000000000000000081526004016108e6906116c4565b60405180910390fd5b80600401805490508310610938576040517f08c379a000000000000000000000000000000000000000000000000000000000815260040161092f90611730565b60405180910390fd5b80600401838154811061094e5761094d6110f4565b5b9060005260206000209060020201600101600081548092919061097090611552565b919050555060018160050160003373ffffffffffffffffffffffffffffffffffffffff1673ffffffffffffffffffffffffffffffffffffffff16815260200190815260200160002060006101000a81548160ff0219169083151502179055507f7fe1d4e6b34e228b5dc059fcdc037c71b216fb2417f47c171e505144a5e4f5fc848433604051610a0293929190611750565b60405180910390a150505050565b6000604051905090565b600080fd5b600080fd5b6000819050919050565b610a3781610a24565b8114610a4257600080fd5b50565b600081359050610a5481610a2e565b92915050565b600060208284031215610a7057610a6f610a1a565b5b6000610a7e84828501610a45565b91505092915050565b600081519050919050565b600082825260208201905092915050565b60005b83811015610ac1578082015181840152602081019050610aa6565b60008484015250505050565b6000601f19601f8301169050919050565b6000610ae982610a87565b610af38185610a92565b9350610b03818560208601610aa3565b610b0c81610acd565b840191505092915050565b600073ffffffffffffffffffffffffffffffffffffffff82169050919050565b6000610b4282610b17565b9050919050565b610b5281610b37565b82525050565b610b6181610a24565b82525050565b60008115159050919050565b610b7c81610b67565b82525050565b600060a0820190508181036000830152610b9c8188610ade565b9050610bab6020830187610b49565b610bb86040830186610b58565b610bc56060830185610b58565b610bd26080830184610b73565b9695505050505050565b6000602082019050610bf16000830184610b58565b92915050565b60006020820190508181036000830152610c118184610ade565b905092915050565b600080fd5b600080fd5b7f4e487b7100000000000000000000000000000000000000000000000000000000600052604160045260246000fd5b610c5b82610acd565b810181811067ffffffffffffffff82111715610c7a57610c79610c23565b5b80604052505050565b6000610c8d610a10565b9050610c998282610c52565b919050565b600067ffffffffffffffff821115610cb957610cb8610c23565b5b610cc282610acd565b9050602081019050919050565b82818337600083830152505050565b6000610cf1610cec84610c9e565b610c83565b905082815260208101848484011115610d0d57610d0c610c1e565b5b610d18848285610ccf565b509392505050565b600082601f830112610d3557610d34610c19565b5b8135610d45848260208601610cde565b91505092915050565b600067ffffffffffffffff821115610d6957610d68610c23565b5b602082029050602081019050919050565b600080fd5b6000610d92610d8d84610d4e565b610c83565b90508083825260208201905060208402830185811115610db557610db4610d7a565b5b835b81811015610dfc57803567ffffffffffffffff811115610dda57610dd9610c19565b5b808601610de78982610d20565b85526020850194505050602081019050610db7565b5050509392505050565b600082601f830112610e1b57610e1a610c19565b5b8135610e2b848260208601610d7f565b91505092915050565b600080600060608486031215610e4d57610e4c610a1a565b5b600084013567ffffffffffffffff811115610e6b57610e6a610a1f565b5b610e7786828701610d20565b935050602084013567ffffffffffffffff811115610e9857610e97610a1f565b5b610ea486828701610e06565b9250506040610eb586828701610a45565b9150509250925092565b6000602082019050610ed46000830184610b73565b92915050565b600081519050919050565b600082825260208201905092915050565b6000819050602082019050919050565b600082825260208201905092915050565b6000610f2282610a87565b610f2c8185610f06565b9350610f3c818560208601610aa3565b610f4581610acd565b840191505092915050565b610f5981610a24565b82525050565b60006040830160008301518482036000860152610f7c8282610f17565b9150506020830151610f916020860182610f50565b508091505092915050565b6000610fa88383610f5f565b905092915050565b6000602082019050919050565b6000610fc882610eda565b610fd28185610ee5565b935083602082028501610fe485610ef6565b8060005b8581101561102057848403895281516110018582610f9c565b945061100c83610fb0565b925060208a01995050600181019050610fe8565b50829750879550505050505092915050565b6000602082019050818103600083015261104c8184610fbd565b905092915050565b6000806040838503121561106b5761106a610a1a565b5b600061107985828601610a45565b925050602061108a85828601610a45565b9150509250929050565b7f4e487b7100000000000000000000000000000000000000000000000000000000600052602260045260246000fd5b600060028204905060018216806110db57607f821691505b6020821081036110ee576110ed611094565b5b50919050565b7f4e487b7100000000000000000000000000000000000000000000000000000000600052603260045260246000fd5b7f4e487b7100000000000000000000000000000000000000000000000000000000600052601160045260246000fd5b600061115d82610a24565b915061116883610a24565b92508282039050818111156111805761117f611123565b5b92915050565b7f496e76616c69642073657373696f6e2049442e00000000000000000000000000600082015250565b60006111bc601383610a92565b91506111c782611186565b602082019050919050565b600060208201905081810360008301526111eb816111af565b9050919050565b7f4d7573742068617665206174206c65617374206f6e652063616e646964617465600082015250565b6000611228602083610a92565b9150611233826111f2565b602082019050919050565b600060208201905081810360008301526112578161121b565b9050919050565b60008190508160005260206000209050919050565b60006020601f8301049050919050565b600082821b905092915050565b6000600883026112c07fffffffffffffffffffffffffffffffffffffffffffffffffffffffffffffffff82611283565b6112ca8683611283565b95508019841693508086168417925050509392505050565b6000819050919050565b60006113076113026112fd84610a24565b6112e2565b610a24565b9050919050565b6000819050919050565b611321836112ec565b61133561132d8261130e565b848454611290565b825550505050565b600090565b61134a61133d565b611355818484611318565b505050565b5b818110156113795761136e600082611342565b60018101905061135b565b5050565b601f8211156113be5761138f8161125e565b61139884611273565b810160208510156113a7578190505b6113bb6113b385611273565b83018261135a565b50505b505050565b600082821c905092915050565b60006113e1600019846008026113c3565b1980831691505092915050565b60006113fa83836113d0565b9150826002028217905092915050565b61141382610a87565b67ffffffffffffffff81111561142c5761142b610c23565b5b61143682546110c3565b61144182828561137d565b600060209050601f8311600181146114745760008415611462578287015190505b61146c85826113ee565b8655506114d4565b601f1984166114828661125e565b60005b828110156114aa57848901518255600182019150602085019450602081019050611485565b868310156114c757848901516114c3601f8916826113d0565b8355505b6001600288020188555050505b505050505050565b60006114e782610a24565b91506114f283610a24565b925082820261150081610a24565b9150828204841483151761151757611516611123565b5b5092915050565b600061152982610a24565b915061153483610a24565b925082820190508082111561154c5761154b611123565b5b92915050565b600061155d82610a24565b91507fffffffffffffffffffffffffffffffffffffffffffffffffffffffffffffffff820361158f5761158e611123565b5b600182019050919050565b60006080820190506115af6000830187610b58565b81810360208301526115c18186610ade565b90506115d06040830185610b49565b6115dd6060830184610b58565b95945050505050565b7f566f74696e672073657373696f6e206973206e6f742061637469766500000000600082015250565b600061161c601c83610a92565b9150611627826115e6565b602082019050919050565b6000602082019050818103600083015261164b8161160f565b9050919050565b7f596f75206861766520616c726561647920766f74656420696e2074686973207360008201527f657373696f6e2e00000000000000000000000000000000000000000000000000602082015250565b60006116ae602783610a92565b91506116b982611652565b604082019050919050565b600060208201905081810360008301526116dd816116a1565b9050919050565b7f496e76616c69642063616e64696461746520696e6465782e0000000000000000600082015250565b600061171a601883610a92565b9150611725826116e4565b602082019050919050565b600060208201905081810360008301526117498161170d565b9050919050565b60006060820190506117656000830186610b58565b6117726020830185610b58565b61177f6040830184610b49565b94935050505056fea2646970667358221220ac843e871ff81aa80f2fd85ff929fe3a98369fc4a691f9f8a5394813ac6fe08164736f6c63430008110033",
    "linkReferences": {},
    "deployedLinkReferences": {}
}